:400000000008002011000000C1070000C107000008B500F07BFE00F0D5FBC04610B50E4C11232360182000F0C1FD00230B4A13600B4A0C491160C020C0000B4908600B4999
:40004000116004210A4A11603C310A4A11600131094A1160236010BD30001040000301400000014040FF00800403014041FF0080280003400C0101400001014008B572B601
:4000800090220F4B1A605E320E4B1A60EA3A0E4B1A600E4A0E4B1A6030220E4B1A602E3A0D4B1A600D4A0E4B1A6003230D4A13600D4A136024220D4B1A60FFF7AFFF08BD71
:4000C00000010240000302400000044098E01900080004400C00044000010440B00D6C00080104400802044000030440080304400000000000000000000000000000000068
:4001000010B5064C2378002B07D1054B002B02D0044800E000BF0123237010BD8800002000000000E825000008B5084B002B03D00748084900E000BF07480368002B00D196
:4001400008BD064B002BFBD09847F9E700000000E82500008C000020700000200000000008B5164B1B6C012B07D8144B00221A64DA651A6600F06AFC02E0013B0F4A1364B9
:400180000E4B5B6DC82B06D10C4B00225A65DA6D013ADA6502E00133084A5365074B9B6EC82B03D90022054B9A6602E00133034A9366012000F0F8FB08BDC046F400002060
:4001C00008B50A4800F080FD00F04AFB002806D1074B00221A651A6E01321A6602E00122034B1A6500F044FB08BDC04688130000F400002038B5102800D9B2E00C1C80006E
:40020000594B1B589F46594B1960081C00F03AFB0020A7E0554B59600020A3E0534B996000209FE0514DE9600C062B6C9C4664442C6400F00BFC01232B66002092E04B4D03
:4002400029610C042B6C9C4664442C6400F0FEFB01232B66002085E0444D69610C022B6C9C4664442C6400F0F1FB01232B66002078E03E4DA9612B6C9C4664442C6400F0B7
:40028000E5FB01232B6600206CE0384DE9610C066B6C9C4664446C6400F0D8FB01232B6600205FE0314D29620C046B6C9C4664446C6400F0CBFB01232B66002052E02B4DD5
:4002C00069620C026B6C9C4664446C6400F0BEFB01232B66002045E0244DA9626B6C9C4664446C6400F0B2FB01232B66002039E01E4DE9620C06AB6C9C466444AC6400F0B0
:40030000A5FB01232B6600202CE0184D2963EB6A1B04AA6C94466344AB6400F097FB01232B6600201EE0114D69630C02AB6C9C466444AC6400F08AFB01232B66002011E0B8
:400340000A4DA963AB6CCB18AB6400F07FFB01232B66064BDC63002004E0044B186CC0B200E0FF2038BDC046EC250000F400002010B500F0D1FB012801D1012400E0002455
:4003800000F0D2FB01280AD1201C01F055FF00228023DB0501F078F801F058F8C4B200F0CBFB012809D1201C01F046FF0022124B01F06AF801F04AF8C4B200F0C5FB0128BF
:4003C00009D1201C01F038FF00220C4B01F05CF801F03CF8C4B200F073FB012809D1201C01F02AFF0022064B01F04EF801F02EF8C4B2201C10BDC0460000104000002040B9
:400400000000304038B5FFF7B3FFC006C00F02D001283CD073E03A4B0A221A6014325A601E329A603C32DA6078321A61F0325A61A532FF329A61E122D200DA61E122120180
:400440001A62E12252015A622E4A9A62E1229201DA622D4A1A63E122D2015A632B4A9A632B4ADA632B4A0023136053609360D360136153619361D361136253629362D36275
:40048000136353639363D363234A936037E01C4B01211960596005229A600532DA601A615A619A61DA611A625A621E2098621E30D86218635863F0249C63DC63154B19605B
:4004C0005A602332FF329A60D860E122D2001A61E12000015861E12252019A61E1229201DA61094C1C62094C5C62E125AD009D62D8621A635C639863DA63074B996038BDD7
:4005000074010020302A000060540000C0A8000020FD0000B0000020F400002010B5FFF727FF104C0F2318406066FFF76BFFA368002B09D10B4A536E9B000B495958C82311
:400540004B43136453640CE0064B5A6E9000064A8258C8214A435A64044C0059414399641A6410BDF400002074010020B000002038B562B6FF2000F01DFA8B48022100F0CD
:40058000A1FC8A48022100F0BBFC00F0DDFBFF22874B1A70012000F0B3FA012000F0A4FA012000F095FA00F0EFF9824800F07AFA814B00221A660121494219645A65DA6415
:4005C0001A60012000F05EF9002000F077F9002000F096FA012000F087FA012000F078FA00F07CFB744B1B6C002B4FD1724B9B68002B12D1012000F045F9002000F080FA45
:40060000012000F071FA012000F062FA01225242694B1A6400F062FB46E0FFF77FFF664B1B68012B11D1012000F02CF9624CA36C2364002000F064FA002000F055FA012057
:4006400000F046FA0023236013E0002000F01AF9594C636C2364012000F052FA002000F043FA012000F034FA01232360E36C0133E364514C206CC82100F056FEE0654F4807
:4006800000F0D6F9012000F08FF90DE000F0BEF9012809D1484B5B6D632B02D800F018FA02E0002000F014FA434B9B6EC72B2ED9414BDB6EBD2B07D13F4B1B6D012B03D14F
:4006C000BE223D4BDA661EE03B4B1B6E012B07D1394A126D012A03D1BF32374BDA6612E0012B07D9344A126D012A03D1DB32324BDA6608E0012B06D12F4B1B6D002B02D1DE
:40070000BD222D4BDA662C4B00229A661A662A4B1B6E012B24D100F079F9002820D100F0B1F8254C00252566FFF7F8FE206CC82100F0FAFDE0656565E5640123236000F07E
:4007400023F91E4800F074F9012000F02DF9012000F0D6F9002000F0C7F9012000F0B8F900F082FBC30614D500F0E4FB022806D10E4B18785978FFF73DFD0D4B187000F048
:40078000E5FB00F08BFB094A1178074B197052785A7000F069FBC30700D423E700F0D0FB00F068FB1EE7C04674000020F0000020F2000020C1010000F40000206101000095
:4007C000FEE7C04670B50F4E0F4D13E029686B68AC68002202E001C901C30432A242FAD1E868002202E0002102C304328242FAD11035013E002EE9D101F0D0FEFFF7B8FE78
:40080000FEE7C046010000005426000008B50F4A136801218B43136000230AE0032B03D89A000B49505800E00A4899000A4A88500133182BF2D9FFF721FC0022074B1A6078
:40084000024A116801230B43136008BD0000104000000000C10700000000002068000020024B18684007C00F7047C04604000440034A10680423184010608008C0B27047FC
:400880001000044004490A68EF231A400001DF3B1840104308607047000004400004000C014B18607047C046080105400004000C014B18607047C046140105400A4B1B68EE
:4008C0009B039B0F012B04D1084A904201D0013004E0002B02D1002800D001380004000C034B18607047C04600010540FFFF00000C01054038B5041C0D1C00F037F9AC400B
:40090000024B1C6000F036F938BDC0460800054008B500F02BF9064A116801230B43136000F028F901201821FFF7E4FF08BDC04600000540014B18607047C04638010540B5
:4009400010B50D4C8023DB042360236823600020FFF7A4FF236823600C22084B1A600120FFF7E8FF3122064B1A600648FFF79EFF0020FFF7A3FF10BD000105402401054052
:400980002801054060EA000008B5064B1B78002B04D1FFF7D5FF0122024B1A70FFF7B8FF08BDC046A4000020014B18607047C04630010540044B1B68002BFBDB0002034BC4
:4009C0001843014B186070470000014040000080014B18667047C0460000002010B5041C00F0C4F8044A1368C0218B43A4011C43146000F0BFF810BD08E400E080225200C4
:400A0000014B1A607047C04600E100E0034B1B68DB0501D5012000E00020704700E100E080225200014B1A607047C04680E100E010B5041CFFF7F4FF201CFFF7C9FF0320AF
:400A4000FFF7CCFFFFF7DAFF10BDC04608B5FFF7E7FF0248FFF7BCFF08BDC046C1070000014B18647047C0460000002010B5041C00F07CF8044A1368C0218B43A4011C4382
:400A8000146000F077F810BD00E400E00122014B1A60704700E100E00122014B1A60704780E100E010B5041CFFF7F6FF201CFFF7D7FF0320FFF7DAFFFFF7E8FF10BDC04616
:400AC000024B18688007C00F7047C0460400044004490A68F7231A40C000EF3B18401043086070470001044004490A68FB231A408000F73B184010430860704700010440AA
:400B000004490A68BF231A4080017F3B184010430860704700000440024B18688006C00F7047C04604000440024B18684006C00F7047C04604010440024B18680006C00FC0
:400B40007047C04604010440024B1868012318407047C046040204400230800804D0C0460138FDD1C046C046C0467047EFF3108072B6704780F310887047C046C046C04696
:400B80001F2318401E3B8340181C014B1860704700E100E01F2318401E3B8340181C014B1860704780E100E001BE7047F8B5041E182C03D0202801D030283CD1FFF7D6FFC4
:400BC000051C1F4A136807218B4313601D4BE3181B78DBB21C4A13601C4A13688B4313601B4803687F229343191C1A4BE3181B7813400B4303603220FFF7AEFF182C16D970
:400C00000F4E33680727BB431A1C231C1C3B9B083B40134333603220FFF79EFF3268BA43231C183B9B083C1C1C4014433460281CFFF7A0FF02E00020FFF7B6FFF8BDC0462C
:400C4000080F0340CDF1FF0F0C0F0340100F0340180F0340B4F1FF0F38B5041C0D1C082802D90020FFF7A0FFA400034B9C4664442068256038BDC0464000002070B5041C52
:400C80000E1E032E02D90020FFF78EFF082C02D90020FFF789FF03252540ED000635FFF765FFA408A400074B9C46644423680322AA409343AE40351C1D432560FFF75AFF8E
:400CC00070BDC04600E400E008B5034B1B7A5843FFF742FF08BDC0467800002008B5FFF745FF074B1B889BB2064A1360064A116804230B43136030BFFFF73CFF08BDC04690
:400D000052F1FF0F0400034010ED00E0014A024B1A6070476588EDAC3800034008B50520FFF72EFF08BDC04608B500F03BF808BD08B5044A1368802109060B431360FFF712
:400D4000EDFF08BD0000064008B5064B1B78002B04D1FFF7E9FF0122024B1A70FFF7E8FF08BDC046A80000200A4B1B68DB050DD5094B1B685B0409D4064B1968074A0A4079
:400D80001A601A68802149000A431A600222044B1A6070470000064060000640FFFEFFFF6C00064010B500241A4B1C601A4A1B4B1A601B4B1B4A13601B4A14601B491C4A5A
:400DC00011601C4A13601C4B1C600520FFF7E2FE05200321FFF752FF05201849FFF73CFF174B1C604C22FF32164B1A60164B1C60164B1C60164B1C603C3AFF3A154B1A70FC
:400E0000154B1C70154B1C60154B1C60154B1C7010BDC0460000064077080040600006400701008000030640040306401000FE00100306400002064004020640590F000023
:400E4000880E0640480F0640080F0640C80F0640880F0640B4010020C0010020B8010020C4010020D8010020014B1878C0B27047C001002010B50520FFF78CFE064A147809
:400E80000F231C4013780D218B4313700520FFF777FE201C10BDC046C001002010B50520FFF778FE064B1C780F229443197820320A401A700520FFF763FE201C10BDC04695
:400EC000C001002038B5002810D00D1C041C0520FFF760FE064B1C60064B1D600023064A1360064A13600520FFF74AFE38BDC046D4010020C8010020B8010020BC01002024
:400F000038B500280ED00D1C041C0520FFF742FE054B1C60054B1D600022054B1A600520FFF72EFE38BDC046D0010020CC010020C4010020014B18687047C046C401002022
:400F40000022014B1A607047B80100200022014B1A607047C401002010B5CE4B1B68002B00D09847CC4B1B68DB0702D50022CB4B1A60CB4B1B789B061FD4CA4B1A6802233C
:400F8000FF331A4219D0C64B1B78DB0709D5C64B1A7802218A431A70197809220A431A7008E0C14B1A7820218A431A70197890220A431A700022BA4B1A70B94B1B789B0685
:400FC00000D565E1B64B1B78DB0600D44AE1B54B1B689B073ED50222B44B1A60B44A13680F211940136880221202134000D00123CB18B04A1278D2B29A4205D9AA4A1178F1
:4010000004230B43137006E0AA4A12789B1AAA490A68D31A0B60A84B1A68A84B1A600023A74A1360A34A1370A64B1A68802149020A431A601968A44A0A401A609A4B1A7839
:4010400002218A431A70197801220A431A701022934B1A70934B1B681B0737D50822934B1A609A4B1B689B040CD414E0984B1A68984909688A1898490968C9B211701A68BC
:4010800001321A60954B1B681B07EFD18F4A1168934B0B401360934B1B689B0604D5824A117840230B43137000228F4B1A608F4A8C4B1A607C4B1A7820218A431A701978CA
:4010C00010220A431A70764B10221A70754B1B685B0646D50122864B1A60864B1B68DB060FD50F32764B1A60744B1A68724B1A606D4A117802230B4313701222684B1A7089
:4011000024E07D4B1B68724A12689B1A072B03D80422754B1A6011E0082B06D16B4A1368A02109020B43136008E0684A1368802189010B43136008226B4B1A605A4A1178C8
:4011400020230B4313701122554B1A706B4A574B1A606B4A116808230B4313600122694B1A60694B1B681B072AD5634B1B68584A1068181A0838082802D9002408200EE068
:4011800001240CE0524B1A68524909688A1852490968C9B211701A6801321A6001380028F0D1002C08D0494A1368802109020B43136000224C4B1A6008224A4B1A6023E00A
:4011C000514B1B685B071FD5434B1B68404A1168494A126891420DD201214A4A11603C4A11683C4800684118DBB20B7013680133136006E0FFF7B8FD2B4A117840230B43D2
:4012000013700422374B1A60404B1B68DB061FD43EE0294B1A683E4B1B689A420CD2264B1A683C4909688A181278D2B23A490A601A6801321A600BE0FF22374B1A601D4B28
:401240001B789B0604D41B4A13780133DBB21370174B1B680F221340082BDAD101322F4B1A6015E02E4A13685B005B08136010210B4B1970154B186819490140196018681B
:401280002849014019601368802109060B43136010BDC046AC0000208C0E0640880E0640B40100204C0F0640C0010020400F064008020640D8010020BC010020B8010020D1
:4012C000880F064004020640FFFFFEFF60000640C4010020D00100204003064008030640FF5FFFFFC00F0640C80F0640ED0F0000800E064064000640CC010020FF0F000071
:40130000480F06406C000640CC0F06408C0F0640C8010020D401002040020640800F064000000640FFFCFFFF002243088B4274D303098B425FD3030A8B4244D3030B8B428A
:4013400028D3030C8B420DD3FF22090212BA030C8B4202D31212090265D0030B8B4219D300E0090AC30B8B4201D3CB03C01A5241830B8B4201D38B03C01A5241430B8B4200
:4013800001D34B03C01A5241030B8B4201D30B03C01A5241C30A8B4201D3CB02C01A5241830A8B4201D38B02C01A5241430A8B4201D34B02C01A5241030A8B4201D30B0241
:4013C000C01A5241CDD2C3098B4201D3CB01C01A524183098B4201D38B01C01A524143098B4201D34B01C01A524103098B4201D30B01C01A5241C3088B4201D3CB00C01A38
:40140000524183088B4201D38B00C01A524143088B4201D34B00C01A5241411A00D20146524110467047FFE701B5002000F00CF802BDC0460029F7D003B5FFF775FF0EBCEC
:401440004243891A1847C0467047C04638B500220C4B041C0D1C00F05FFF002804D1201C291C00F0B3FE38BD064B0022201C291C00F032FB00F0AAFE80231B069C4660441E
:40148000F1E7C0460000E041F0B5454657464E4694464C000A03C90FE0B488460E1C1903470FC500480A6146490F01436046520A1743C0005A00640D520DDB0F8446984592
:4014C00000D1A7E0A01A002800DC01E1002A3DD163460B4300D0D4E06B0700D188E00F232B40042B00D183E02A1DAA42AD4180236D427F191B043B404646151C002B00D138
:401500007CE0CC4B01349C4200D1FDE03A1CCA4BED081A405007640552020543120B640D002112030B0D1B056405120B1A436308C24CF60714401C43640064083443281CCE
:40154000211C1CBC90469946A246F0BDB94B9C42C2D080231B041943382800DDECE01F2800DD21E120220E1C6346121A9640C340334366469640321C561EB24113430A1C08
:40158000C240EB1A9D42B6411D1CBA1A7642971B3B0200D497E07A02560A002E00D1B6E0301C00F0C3FE031C083B1F2B00DDB7E09E40371C28262A1C361AF240161C9D406B
:4015C0003E439C4200DDB2E01C1B621C1F2A00DDD8E01F23291C1C1B331CA540A340D1406C1EA541D64019430D43371C002473E780231B043B40464600D082E78D4BED08D2
:4016000078070543FA089C4232D012036405120B640D85E7A31A002B00DC94E0002A3CD0844A944200D157E7802212041143382B00DC05E163461943481E81410022C8B26E
:401640004019A8429B41051CD2195B42D7183B0239D5784B01349C4200D14CE10120764A6B083A4028401843D5070543570833E72B1C134348D080231B031A431203120B61
:401680004EE70138002878D16346EE1AB5429B417A1A5B42D71A351C7AE7021C0A4300D11AE7013B002B00D0F2E04019A8429B41CA195B42D718051CC9E7131C334300D1D8
:4016C00018E1171C351C46466B0700D007E795E700287AD1621C5205520D012A00DCFBE06246AA1A9542B6419146781A7242861A320200D493E06246551BAC458041CF1B86
:4017000040423E1A984648E70022002508E7281C00F00CFE2030031C083B1F2B00DC47E7283885402E1C00259C4200DC4CE7424AE41A1640371CCFE6634619434B1E994197
:401740000022CBB21DE7002B00D0F2E0601C43055B0D012B00DCA4E0364B984200D121E163465C19AC429B41CF195B42FA186408D50725435708041CAEE62E4B9C4200D0AA
:40178000EAE6A9E6211C331C1F39CB40191C202A00D182E03F231C1BA64035436E1EB54100270D4300248EE7031C0E1C203BDE40202874D040231B1A99400B1C62461343BC
:4017C000591E8B4100223343DBE6002C50D0194CA24200D1A8E08024240440422743382800DDD9E01F2800DD39E120243E1C241AA640B0462E1CA146C640444626434C46FF
:40180000A5406C1EA541C74035436046451BCF1BAC45894149427F1A141C9846B8E64B464D46334300D0B8E60026002700240025E4E6C046FF070000FFFF7FFFFFFF0F80DC
:401840001F2B5BDC2022081CD21A9040814660469246D8404A4610438146524660469040021C501E8241484610430A1CDA40E7E63C1C2C4358D0C043002851D16046451B31
:40188000AC458041CF1B40423F1A141C98467FE68F4A944200D0CAE61EE600267DE700238CE73B1C2B43002C00D0BDE0002B00D1F5E063460B4300D10EE663465B19AB42F6
:4018C0008041CA19404217183A0200D4FCE0814A1D1C17400134FFE53A1C2A43002C51D1002A00D085E062460A4303D00F1C65469846F1E50026002700257FE6181C0A1C40
:401900002038C240202B00D1A7E04020C01A8140081C63461843411E8841104300228FE66B4CA24200D05AE70F1C6546141C9846D2E5002C3AD1381C284371D0DB43002BAE
:4019400018D0634882426BD0382B00DD9DE01F2B00DDA7E020203C1CC01A8440A1462C1C8246DC404846044350468540681E8541DF402543654465459B417F185B42FF18A4
:40198000141C64E6002A19D162460A4377D00F1C654698464E4C9FE53D436F1EBD410027EDB232E7041C0027002527E64848824236D0802000045B420743C5E762460A43A2
:4019C00049D08024ED087807FA0824032843224209D0CE08264206D162464F07381CD20810439846321CD200470F1743C500384C72E562460A4300D16EE56246AE1AB54283
:401A00009241781A5242821A100200D455E66246551BAC458041CA1B4042171A98465BE50F1C6546141C57E5002B34D063460B4311D08024ED087807FA0824032843224217
:401A4000D1D0CB082342CED162464F07381CD20810431A1CC7E71E4C3EE5002059E7041C3E1C203CE640341C20282BD04026301A87403D436F1EBD4100272543C5E68027AC
:401A80000026FF03124C0025B8E53D436F1EBD410027EDB26EE70F1C65460D4C1CE50F1C654619E51C1C381C203CE040041C202B0CD04020C31A9F403D436F1EBD41002717
:401AC000254357E70027D4E71D1CFCE50027F3E7FF070000FFFF7FFFF0B54D4644465F465646F0B40E1C111C3203520A470F1743C5001A035800DB0F9946520A4B0F83B096
:401B00001A43CB000193CF4B7400F60F640DB046400D984200D1E8E00123494659400B1C9E4200D1B1E0261A002E00DC1CE1002842D1131C01990B4300D0E6E06B0700D108
:401B40008EE00F232B40042B00D189E02A1DAA42AD418023012641466D427F191B043B400E40151C002B00D183E0B64B01349C4200D116E13A1CB44BED081A405007640580
:401B800052020543120B640D002112030B0D1B056405120B1A436308AC4CF60714401C43640064083443281C211C03B03CBC90469946A246AB46F0BDA24B9C42BED08023ED
:401BC0001B041A43382E00DD03E11F2E00DD3FE12020831B9946131C49468B409C46019B6046F34003430198F2408840011C481E81410B43EB1A9D4280411D1CBA1A4042BB
:401C0000171A3B0200D4A8E07A02560A002E00D1CAE0301C00F08AFB031C083B1F2B00DDCBE02822291C121AD1409E400A1C9D4032439C4200DDC8E01C1B671C1F2F00DDF6
:401C4000EDE01F23291C1C1B131CA540A340F9406C1EA541FA4019430D43171C00246DE78023012642461B043B401640002B00D07BE7744BED0878070543FA089C423BD0A3
:401C800012036405120B640D7EE7231A9A46002B00DCA5E0002844D06A48844200D14DE78020000402435346382B00DC1CE1019B1A43511E8A41D1B200224919A9428041AD
:401CC0000D1CD219404217183B0246D55D4B01349C4200D169E101205B4A6B083A4028401843D5070543570828E7131C01990B4300D111E74B4613E72B1C134351D080231D
:401D00001B031A431203120B3EE7013E002E00D080E0691A8D429B41BA1A5B42D71A0D1C6FE7101C019B184300D107E701235B429C46E2445346002B00D002E1019BD2197C
:401D40005919A9429B415B42D7180D1CBCE76346034300D128E1071C65466B0700D0F0E6012643461E4084E7002E00D081E0601C4005400D012800DC07E10199681A84466A
:401D80006545B641B81A7642861B300200D4A1E08C464D1BAC458941D21B4942561A984634E700220025EFE6281C00F0BFFA2030031C083B1F2B00DC33E7021C283A9540AA
:401DC0002A1C00259C4200DC36E71F4FE41A1740B4E6019B1A43511E8A41D3B2002209E7002B00D001E1601C43055B0D012B00DCB0E0144B984200D11EE1019BD2195919D7
:401E0000A9429B415B42D2184908D5070D435708041C93E60B4B9C4200D0D3E68EE6211C131C1F39CB40191C202F00D18EE03F231C1BA24015436A1E954100270D43002450
:401E40008BE7C046FF070000FFFF7FFFFFFF0F80331C101C203BD840202E79D040239B1B9A40131C019A1343591E8B4100220343C0E6002C53D0C74CA04200D1B0E08024A9
:401E800071428946240427434946382900DDCDE01F2900DD59E120243E1C611A8E408A46B04649462E1CCE405146B4468D4064464646494626436C1EA541CF403543019984
:401EC000D71B8C464D1BAC4592415242BF1A041C984696E663466546334300D096E60026002700240025C4E61F2B61DC2020C31A9B46131C59468B4051469946019BCB407A
:401F00009C464B46604603439C465B46019999406346481E814119435346DA40CDE63C1C2C435DD0F1438946002955D10199D21B8C464D1BAC4589414942571A041C9846FD
:401F40005FE69448844200D0ADE6F7E5002271E7002387E73B1C2B43002C00D0DAE0002B00D113E1131C01990B4300D1E6E54919A9429B41D2195B42D7183B0200D421E15F
:401F8000854B0D1C1F40041CD8E5381C2843002C40D1002800D083E0101C0199084303D0171C0D1C9846C9E500260027002560E65046131C2038C340181C5346202B00D108
:401FC000C1E0402351465B1A9A40019911434A1E91410022014370E66E4CA04200D053E7171C019D041C9846A8E5002C28D13C1C2C4300D18AE0DB439A46002B00D082E08F
:40200000019BD2199C4665449D42894149425718041C59E600285BD1101C0199084300D1A4E0171C0D1C98465A4C87E53D436F1EBD410027EDB242E7041C0027002518E622
:40204000544CA04262D0534680245B429A46240427435346382B00DD8EE01F2B00DD9DE02024E31A9B463B1C59468B40514699462B1CCB409C464B46644623439C465B46C4
:402080009D4063466C1EA541CF401D43019BBF189C4665449D4292415242BF18041C13E6101C0199084300D148E5681A844685428041BE1A4042301A060200D447E68C4625
:4020C0004D1BAC458941D21B4942571A984635E5101C0199084334D080247807ED08FF0824032843274208D0D608264205D1C90852070A43101C371C9846FF00420F17433B
:40210000C500244C1AE5234CA042A2D1171C019D041C13E5002B35D0131C01990B4310D080247807ED08FF08240328432742E4D0D3082342E1D1C90852070A43101C1F1CF9
:40214000DBE7144CFAE400223FE74C463E1C203CE6404946341C202932D04026761AB7403D436F1EBD4100272543A8E680270026FF03084C00257CE53D436F1EBD4100278F
:40218000EDB283E7171C019D024CD7E4171C019DD4E4C046FF070000FFFF7FFF54463B1C203CE3401C1C5346202B0DD0402351465B1A9F403D436F1EBD410027254365E78E
:4021C0000027CDE70D1CC8E50027F3E70B0330B5134C1A0B4B00051C5B0DC90F0020A34210DD104883420EDC80200F4C40030243E41A1F2C0ADD0D48C31ADA40131C484259
:402200004340581830BD0A4BC818FBE7281CE040084CA44663449A40131C0343EFE7C046FE0300001D0400003304000013040000FFFFFF7FEDFBFFFF38B5041E16D0C50F98
:4022400000D04442201C00F071F8174B1B1A0A2821DC021C211C153291400A1C0B21081AC4405B052403240B5B0D03E000250023002400220021101C24030A0D1205240B62
:4022800014430A4A1B0514401C436400ED0764082C43211C38BD0B3884405B052403240B5B0D0022E6E7C0461E040000FFFF0F808446101C62468C46191C634600E0C0463E
:4022C0001FB500F005F9002801D40021C8421FBD10B500F049F84042013010BD10B500F0F7F8002801DB002010BD012010BDC04610B500F0EDF8002801DD002010BD01206B
:4023000010BDC04610B500F073F8002801DC002010BD012010BDC04610B500F069F8002801DA002010BD012010BDC0461C2101231B04984201D3000C10391B0A984201D374
:40234000000A08391B09984201D30009043902A2105C40187047C04604030202010101010000000000000000F0B55F464D4644465646F0B41F035C00DB0F99461B4B0E0361
:402380004D00C90F8446360B6D0D8B4690463F0B640D9D420CD0154B9C4210D00123A54214D0181C3CBC90469946A246AB46F0BD311C01230143F4D10C4B9C42EED13A43F7
:4023C0000123002AEDD10123A542EAD1BE42E8D1C445E6D1CB4506D0002DE2D13043031C581E8341DDE70023DBE7C046FF070000F0B5574645464E46E0B40F034E00C90F1E
:402400008A4632491D035C0084463F0B760D90462D0B640DDB0F8E420FD08C4239D0002E10D13843414241418946002C27D12A4325D1002000290ED108E0391C01432ED1C2
:40244000B44226D0002C0BD09A450DD05346594201231943081C1CBC90469946A246F0BD2A43F3D09A45F1D1A642EFDC1ADA504641424841012341421943081CEBE74A4610
:40248000002AE1D058425841012241421143081CE1E7291C114302D1002EC2D0D4E702204042D8E7AF42D1D809D00020AF42D2D2504641424841012340421843CBE7C44558
:4024C000C4D80020C445F3D3C5E7C046FF070000F0B55F464D46444656468046F0B4061C0803000B84462C484C001F035D00C90F640D8B4691463F0B6D0DDB0F844212D0A4
:40250000854225D0002C14D161460E4370424641002D35D0002E21D058425841012143420B43181C0EE06146022031430AD1A5420ED0002D12D13A4310D15B465942012357
:402540001943081C3CBC90469946A246AB46F0BD391C02201143F5D1002CD5D09B45ECD1AC42EADC05DBBC45E7D80FD00020BC45E8D2584641424841414201200843E1E73A
:402580003A43C7D10020002EDCD1D6E7C845D4D80020C845EDD3D5E7FF0700000E4B70B500251E1C0D4CE41AA410A54204D0AB00F35898470135F8E700F03AF8084B0025BF
:4025C0001E1C084CE41AA410A54204D0AB00F35898470135F8E770BD3C2600003C2600003C260000442600000000000006020000140200001C020000240200003E02000097
:4026000058020000720200008A020000A4020000BE020000D8020000F00200000A0300002603000040030000520300005A030000F8B5C046F8BC08BC9E46704729010000F3
:402640000D080000F8B5C046F8BC08BC9E46704701010000682600007000002018000000580100000000000000000000FFFF000000007017E02E00000C000000001BB7007D
:40268000000000000000000000000000000000000000000000000000000000000000000000000000000000000000000000000000000000000000000000000000000000001A
:4026C00000000000000000000000000000000000000000000000000000000000000000000000000000000000000000000000000000000000000000000000000000000000DA
:402700000000000000000000000000000000000000000000000000000000000000000000000000000000000000000000000000000000000000000000000000000000000099
:402740000000000000000000000000000000000000000000000000000000000000000000000000000000000000000000000000000000000000000000000000000000000059
:0200000490303A
:02000000BBD96A
:0200000490402A
:200000000000000000000000000000000000000000000000000000000000000000000000E0
:0200000490501A
:0C00000000020A43119A00000A4FCD7361
:0200000490600A
:0100000001FE
:00000001FF