:4000000000080020110000009D0200009D02000008B500F01DFB00F043F9C04610B50A4C11232360182000F0BDFA0023074A13600749084A11600421074A11603C31074A02
:400040001160236010BDC046300010400003014040FF008000000140280003400C01014008B572B690220E4B1A6000220D4B1A600D4A0E4B1A6010220D4B1A600E3A0D4B10
:400080001A600D4A0D4B1A6003220D4B1A60023A0C4B1A6005320C4B1A60FFF7BFFF08BD0001024000030240D8E01900080004400C00044000010440B00D6C000801044068
:4000C000080204400003044008030440000000000000000000000000000000000000000000000000000000000000000000000000000000000000000000000000000000001C
:4001000010B5064C2378002B07D1054B002B02D0044800E000BF0123237010BD7800002000000000AC06000008B5084B002B03D00748084900E000BF07480368002B00D101
:4001400008BD064B002BFBD09847F9E700000000AC0600007C000020700000200000000008B5124B1B68012B07D800230F4A13600F4A137000F0C6F902E0013B0B4A1360CE
:400180000C4B1B78C82B0AD100220A4B1A70084A1378013B13700122074B1A7002E00133044A1370012000F065F908BD98000020D3000020D2000020D000002008B5012263
:4001C000024B1A7000F0BAF808BDC046D100002008B562B6FF2000F053F900F03BF9234800F082F9224800F0B9F9224A224B1A603C22224B1A700023214A1370214A1370ED
:40020000214A1370FF22214B1A701B4B1B68002B05D1002000F09CF81D4800F0B5F8184B1B78012B12D1012000F092F80022144B1A70104A104B1A603C22104B1A700B48B9
:4002400000F052F9012000F015F9DEE70A4B1B68002BDAD00B4B1B78632B03D80D4800F093F8D2E70C4800F08FF8CEE761010000BD010000E02E000098000020D30000207E
:40028000D1000020D2000020D0000020A4000020983A00003075000060EA0000FEE7C04670B50F4E0F4D13E029686B68AC68002202E001C901C30432A242FAD1E8680022C9
:4002C00002E0002102C304328242FAD11035013E002EE9D100F0C4F9FFF77AFFFEE7C04601000000D406000008B50F4A136801218B43136000230AE0032B03D89A000B492B
:40030000505800E00A4899000A4A88500133182BF2D9FFF7A5FE0022074B1A60024A116801230B43136008BD00001040000000009D0200000000002068000020034A10688A
:400340000423184010608008C0B270471000044004490A68EF231A400001DF3B1840104308607047000004400004000C014B18607047C046080105400004000C014B186082
:400380007047C046140105400A4B1B689B039B0F012B04D1084A904201D0013004E0002B02D1002800D001380004000C034B18607047C04600010540FFFF00000C010540A3
:4003C00038B5041C0D1C00F0E1F8AC40024B1C6000F0E0F838BDC0460800054008B500F0D5F8064A116801230B43136000F0D2F801201821FFF7E4FF08BDC0460000054014
:40040000014B18607047C0463801054010B50D4C8023DB042360236823600020FFF7A4FF236823600C22084B1A600120FFF7E8FF3122064B1A600648FFF79EFF0020FFF7B7
:40044000A3FF10BD00010540240105402801054060EA000008B5064B1B78002B04D1FFF7D5FF0122024B1A70FFF7B8FF08BDC04694000020014B18607047C046300105401D
:40048000044B1B68002BFBDB0002034B1843014B186070470000014040000080014B18667047C0460000002010B5041C00F06EF8044A1368C0218B43A4011C43146000F080
:4004C00069F810BD08E400E080225200014B1A607047C04600E100E080225200014B1A607047C04680E100E010B5041CFFF7F4FF201CFFF7D3FF0320FFF7D6FFFFF7E4FF79
:4005000010BDC04608B5FFF7E7FF0248FFF7C6FF08BDC0469D020000014B18647047C0460000002010B5041C00F030F8044A1368C0218B43A4011C43146000F02BF810BD6E
:4005400000E400E00122014B1A60704700E100E00122014B1A60704780E100E010B5041CFFF7F6FF201CFFF7D7FF0320FFF7DAFFFFF7E8FF10BDC0460230800804D0C04667
:400580000138FDD1C046C046C0467047EFF3108072B6704780F310887047C046C046C04601BE7047F8B5041E182C03D0202801D030283CD1FFF7EAFF051C1F4A1368072160
:4005C0008B4313601D4BE3181B78DBB21C4A13601C4A13688B4313601B4803687F229343191C1A4BE3181B7813400B4303603220FFF7C2FF182C16D90F4E33680727BB436B
:400600001A1C231C1C3B9B083B40134333603220FFF7B2FF3268BA43231C183B9B083C1C1C4014433460281CFFF7B4FF02E00020FFF7B6FFF8BDC046080F0340CDF1FF0F08
:400640000C0F0340100F0340180F0340B4F1FF0F014A024B1A6070476588EDAC380003400E4B70B500251E1C0D4CE41AA410A54204D0AB00F35898470135F8E700F018F846
:40068000084B00251E1C084CE41AA410A54204D0AB00F35898470135F8E770BDBC060000BC060000BC060000C406000000000000F8B5C046F8BC08BC9E46704729010000B0
:4006C000E9020000F8B5C046F8BC08BC9E46704701010000E80600007000002008000000680000000000000000000000000000000000000000000000000000000000000059
:4007000000000000000000000000000000000000000000000000000000000000000000000000000000000000000000000000000000000000000000000000000000000000B9
:400740000000000000000000000000000000000000000000000000000000000000000000000000000000000000000000000000000000000000000000000000000000000079
:400780000000000000000000000000000000000000000000000000000000000000000000000000000000000000000000000000000000000000000000000000000000000039
:4007C00000000000000000000000000000000000000000000000000000000000000000000000000000000000000000000000000000000000000000000000000000000000F9
:0200000490303A
:0200000021C518
:0200000490402A
:200000000000000000000000000000000000000000000000000000000000000000000000E0
:0200000490501A
:0C00000000020A43119A00000A45335F19
:0200000490600A
:0100000001FE
:00000001FF