:400000000008002011000000250300002503000008B500F0B9FB00F087F9C04610B50A4C11232360182000F059FB0023074A13600749084A11600421074A11603C31074A73
:400040001160236010BDC046300010400003014040FF008000000140280003400C01014008B572B690220E4B1A6000220D4B1A600D4A0E4B1A6020220D4B1A601E3A0D4BF0
:400080001A600D4A0D4B1A6003220D4B1A60023A0C4B1A6005320C4B1A60FFF7BFFF08BD0001024000030240D8E01900080004400C00044000010440B00D6C000801044068
:4000C000080204400003044008030440000000000000000000000000000000000000000000000000000000000000000000000000000000000000000000000000000000001C
:4001000010B5064C2378002B07D1054B002B02D0044800E000BF0123237010BD9000002000000000F009000008B5084B002B03D00748084900E000BF07480368002B00D1A2
:4001400008BD064B002BFBD09847F9E700000000F009000094000020700000200000000008B5124B1B68012B07D800230F4A13600F4A137000F00AFA02E0013B0B4A13602A
:400180000C4B1B78C82B0AD100220A4B1A70084A1378013B13700122074B1A7002E00133044A1370012000F0A9F908BDB400002067010020660100206401002008B5012244
:4001C000024B1A7000F0FEF808BDC0466501002010B562B6FF2000F097F900F0E1F900243F4B1C70012000F055FA012000F046FA012000F037FA00F071F93A4800F0B8F901
:40020000394800F021FA394A394B1A603C22394B1A70394B1C70394B1C70354B1B68002B05D1002000F0D8F8354800F0F1F8324B1B78012B12D1012000F0CEF800222E4B5A
:400240001A702A4A2A4B1A603C222A4B1A70254800F08EF9012000F051F91BE0244B1B68002B11D0254B1B78632B03D8254800F0CFF802E0244800F0CBF8012000F00AFA56
:40028000002000F0FBF905E0002000F003FA012000F0F4F9124B1B78012BBED11B4800F081F900F0A7F91A4800F07CF9194B1B78002B03D1184800F075F902E0174800F096
:4002C00071F900F097F9164800F06CF9094B187800F086F900F08EF90022014B1A709CE76401002061010000BD010000E02E0000B400002067010020650100206601002000
:40030000983A00003075000060EA0000F4090000100A000040010020240A0000300A0000380A0000FEE7C04670B50F4E0F4D13E029686B68AC68002202E001C901C30432DE
:40034000A242FAD1E868002202E0002102C304328242FAD11035013E002EE9D100F022FBFFF736FFFEE7C04601000000840A000008B50F4A136801218B43136000230AE0B0
:40038000032B03D89A000B49505800E00A4899000A4A88500133182BF2D9FFF761FE0022074B1A60024A116801230B43136008BD000010400000000025030000000000201B
:4003C00068000020034A10680423184010608008C0B270471000044004490A68EF231A400001DF3B1840104308607047000004400004000C014B18607047C0460801054089
:400400000004000C014B18607047C046140105400A4B1B689B039B0F012B04D1084A904201D0013004E0002B02D1002800D001380004000C034B18607047C046000105409E
:40044000FFFF00000C01054038B5041C0D1C00F039F9AC40024B1C6000F038F938BDC0460800054008B500F02DF9064A116801230B43136000F02AF901201821FFF7E4FFEF
:4004800008BDC04600000540014B18607047C0463801054010B50D4C8023DB042360236823600020FFF7A4FF236823600C22084B1A600120FFF7E8FF3122064B1A600648D0
:4004C000FFF79EFF0020FFF7A3FF10BD00010540240105402801054060EA000008B5064B1B78002B04D1FFF7D5FF0122024B1A70FFF7B8FF08BDC046AC000020014B18600F
:400500007047C04630010540044B1B68002BFBDB0002034B1843014B186070470000014040000080014B18667047C0460000002010B5041C00F0C6F8044A1368C0218B43DC
:40054000A4011C43146000F0C1F810BD08E400E080225200014B1A607047C04600E100E080225200014B1A607047C04680E100E010B5041CFFF7F4FF201CFFF7D3FF0320DC
:40058000FFF7D6FFFFF7E4FF10BDC04608B5FFF7E7FF0248FFF7C6FF08BDC046250300007047C04638B5051C0078012404E000F0F7F8285D0134E4B20028F8D138BDC046CC
:4005C00038B5041C0309054DE85C00F0E9F80F231C40285D00F0E4F838BDC0464C0A000010B5041C000AFFF7EBFFE0B2FFF7E8FF10BDC04608B50D2000F0D2F80A2000F07C
:40060000CFF808BD014B18647047C0460000002010B5041C00F056F8044A1368C0218B43A4011C43146000F051F810BD00E400E00122014B1A60704700E100E00122014BDC
:400640001A60704780E100E010B5041CFFF7F6FF201CFFF7D7FF0320FFF7DAFFFFF7E8FF10BDC04604490A68F7231A40C000EF3B18401043086070470001044004490A68A3
:40068000FB231A408000F73B18401043086070470001044004490A68BF231A4080017F3B184010430860704700000440000000000230800804D0C0460138FDD1C046C04616
:4006C000C0467047EFF3108072B6704780F310887047C046C046C04601BE7047F8B5041E182C03D0202801D030283CD1FFF7EAFF051C1F4A136807218B4313601D4BE3188E
:400700001B78DBB21C4A13601C4A13688B4313601B4803687F229343191C1A4BE3181B7813400B4303603220FFF7C2FF182C16D90F4E33680727BB431A1C231C1C3B9B085E
:400740003B40134333603220FFF7B2FF3268BA43231C183B9B083C1C1C4014433460281CFFF7B4FF02E00020FFF7B6FFF8BDC046080F0340CDF1FF0F0C0F0340100F034076
:40078000180F0340B4F1FF0F014A024B1A6070476588EDAC380003400000000000000000FEB5494652465B460EB407462E4909688A462E4A12682E48022100F061F8030039
:4007C0002A480068C0182A4900F05AF806001F3EB346234A126801219140C9430C0001250026FFF76FFF814651460B6823400B6058460430FFF75CFF3800F0402840904032
:400800000B68234003430B605846FFF751FF0136072EF1D900200130012090400B68234003430B6058460630FFF742FF4846FFF74DFFC046C046C0460EBC894692469B460F
:40084000FEBDC046C046C046C046C046C046C046C046C046C046C046C046C046C046C046B000002078000020740000208800002000C20100C046C046C046C046C046C046D8
:40088000002243088B4274D303098B425FD3030A8B4244D3030B8B4228D3030C8B420DD3FF22090212BA030C8B4202D31212090265D0030B8B4219D300E0090AC30B8B42C7
:4008C00001D3CB03C01A5241830B8B4201D38B03C01A5241430B8B4201D34B03C01A5241030B8B4201D30B03C01A5241C30A8B4201D3CB02C01A5241830A8B4201D38B0288
:40090000C01A5241430A8B4201D34B02C01A5241030A8B4201D30B02C01A5241CDD2C3098B4201D3CB01C01A524183098B4201D38B01C01A524143098B4201D34B01C01AFC
:40094000524103098B4201D30B01C01A5241C3088B4201D3CB00C01A524183088B4201D38B00C01A524143088B4201D34B00C01A5241411A00D20146524110467047FFE758
:4009800001B5002000F00CF802BDC0460029F7D003B5FFF775FF0EBC4243891A1847C0467047C0460E4B70B500251E1C0D4CE41AA410A54204D0AB00F35898470135F8E7F5
:4009C00000F04EF8084B00251E1C084CE41AA410A54204D0AB00F35898470135F8E770BD6C0A00006C0A00006C0A0000740A0000000000002D2D2D2D2D2D2D2D2D2D2D2D3B
:400A00002D2D2D2D2D2D2D2D2D2D2D2D2D2D00004F7065726174696E67204D6F64653A200000000053687574746F666600000000546F67676C6500005365636F6E647320F4
:400A400072656D616E696E673A2000003031323334353637383941424344454600000000F8B5C046F8BC08BC9E4670472901000071030000F8B5C046F8BC08BC9E467047FF
:400A800001010000980A00007000002020000000600100000000000000000000000304400300000000007017E02E00000C000000001BB700000000000000000000000000C4
:400AC00000000000000000000000000000000000000000000000000000000000000000000000000000000000000000000000000000000000000000000000000000000000F6
:400B000000000000000000000000000000000000000000000000000000000000000000000000000000000000000000000000000000000000000000000000000000000000B5
:400B40000000000000000000000000000000000000000000000000000000000000000000000000000000000000000000000000000000000000000000000000000000000075
:400B80000000000000000000000000000000000000000000000000000000000000000000000000000000000000000000000000000000000000000000000000000000000035
:0200000490303A
:020000005EFFA1
:0200000490402A
:200000000000000000000000000000000000000000000000000000000000000000000000E0
:0200000490501A
:0C00000000020A43119A00000A467099A1
:0200000490600A
:0100000001FE
:00000001FF