:400000000008002011000000510800005108000008B500F01BFF00F01DFCC04610B50A4C11232360182000F099FE0023074A13600749084A11600421074A11603C31074ACF
:400040001160236010BDC046300010400003014040FF008000000140280003400C01014008B572B69022104B1A6000220F4B1A6004320F4B1A600F4A0F4B1A6030220F4BF7
:400080001A602E3A0E4B1A600E4A0F4B1A6003220E4B1A60023A0E4B1A6005320D4B1A60FFF7BCFF08BDC04600010240000302400000044098E01900080004400C000440DA
:4000C00000010440B00D6C00080104400802044000030440080304400000000000000000000000000000000000000000000000000000000000000000000000000000000061
:4001000010B5064C2378002B07D1054B002B02D0044800E000BF0123237010BD90000020000000000022000008B5084B002B03D00748084900E000BF07480368002B00D179
:4001400008BD064B002BFBD09847F9E7000000000022000094000020700000200000000008B5174B1B6C012B07D8154B00221A64DA651A6600F0C8FC02E0013B104A13643B
:400180000F4B5B6DC82B09D10D4B00225A65DA6D013ADA6501220B4B1A7002E00133084A5365074B9B6EC82B03D90022044B9A6602E00133024A9366012000F049FC08BD22
:4001C000140100209401002008B50A4800F01CFE00F08EFB002806D1074B00221A651A6E01321A6602E00122034B1A6500F088FB08BDC046881300001401002010B500F0C1
:4002000055FD012801D1012400E0002400F062FD01280AD1201C01F01BFE00228023DB0500F03EFF00F01EFFC4B200F067FD012809D1201C01F00CFE0022124B00F030FF2E
:4002400000F010FFC4B200F06BFD012809D1201C01F0FEFD00220C4B00F022FF00F002FFC4B200F0C7FC012809D1201C01F0F0FD0022064B00F014FF00F0F4FEC4B2201CBB
:4002800010BDC04600001040000020400000304038B5FFF7B3FFC006C00F02D001283CD073E03A4B0A221A6014325A601E329A603C32DA6078321A61F0325A61A532FF32A0
:4002C0009A61E122D200DA61E12212011A62E12252015A622E4A9A62E1229201DA622D4A1A63E122D2015A632B4A9A632B4ADA632B4A0023136053609360D3601361536152
:400300009361D361136253629362D362136353639363D363234A936037E01C4B01211960596005229A600532DA601A615A619A61DA611A625A621E2098621E30D862186346
:400340005863F0249C63DC63154B19605A602332FF329A60D860E122D2001A61E12000015861E12252019A61E1229201DA61094C1C62094C5C62E125AD009D62D8621A63A9
:400380005C639863DA63074B996038BD98010020302A000060540000C0A8000020FD0000B40000201401002010B5FFF727FF234C0F2318406066FFF76BFFA368002B15D195
:4003C0001E4C636E9B001E4A9A58C8235343236463641C4800F0A4FB606CC82100F0B0FD80B200F0BBFB00F0C3FB25E0134C636E9900134BCB58C8225343636412480958E2
:400400004A43A2642364114800F08AFB606CC82100F096FD80B200F0A1FB0D4800F080FB0C4800F07DFBA06CC82100F089FD80B200F094FB00F09CFB10BDC04614010020B7
:400440009801002004220000B40000201C220000DC2300003022000010B5041E1DD1032000F064FA032000F0F9FA022000F006FC022000F0EBFB022000F0D0FB012000F0F4
:40048000AFFB012000F006FC012000F017FC012000F028FC012000F039FC012C1DD1062000F044FA062000F0D9FA062000F0E6FB062000F0CBFB062000F0B0FB012000F0E3
:4004C0008FFB032000F0E6FB032000F0F7FB032000F008FC032000F019FC10BD38B562B6FF2000F0C5FA00F019FB0025C14B1D70FA20C00000F088FCBF4800F011FB00F097
:4005000037FBBE4800F00CFB032000F027FB00F02FFB012000F0A6FB012000F08BFB012000F070FB00F084FAB54800F04BFBB54C256601235B4223646565E564256001204A
:4005400000F0E8F9002000F00DFA002000F08AFB012000F06FFB012000F054FBAA4800F0DFFA00F005FBA94800F0DAFA00F000FB65670020FFF770FF00F050FCA14B1B6CD8
:40058000002B5ED19F4B9B68002B21D1012000F0C1F99F4800F0C4FA00F0EAFA002000F061FB012000F046FB012000F02BFB954C01235B422364954800F0B2FA00F0D8FA4A
:4005C000002363670020FFF747FF00F027FC46E0FFF7EAFE8B4B1B68012B11D1012000F099F9884CA36C2364002000F03BFB002000F020FB012000F005FB0023236013E00C
:40060000002000F087F97F4C636C2364012000F029FB002000F00EFB012000F0F3FA01232360E36C0133E364764C206CC82100F087FCE065774800F059FA012000F008FA48
:400640000DE000F041FA012809D16E4B5B6D632B02D800F0D7FA02E0002000F0D3FA694B9B6EC72B42D9674BDB6EBD2B0CD1654B1B6D012B08D1BE22624BDA66664800F0C4
:400680004FFA00F075FA2DE05E4B1B6E012B0CD15C4A126D012A08D1BF325A4BDA665F4800F03EFA00F064FA1CE0012B0CD9554A126D012A08D1DB32524BDA66584800F085
:4006C0002FFA00F055FA0DE0012B0BD14D4B1B6D002B07D1BD224B4BDA66524800F020FA00F046FA474B00229A661A66454B1B6E012B34D100F0E8F9002830D14A4800F0F7
:400700000FFA00F035FA3F4B5B6F002B05D101223C4B5A670120FFF79FFE002000F0FAF8384C00252566FFF73FFE206CC82100F007FCE0656565E5640123236000F078F9EC
:40074000344800F0D3F9012000F082F9012000F089FA002000F06EFA012000F053FA254B1B78012B00D009E7304800F0D9F9254B9B68002B03D12E4800F0D2F911E02D4819
:4007800000F0CEF92C4800F0CBF91E4CE36C180C00F0E4F9E06C80B200F0E0F9274800F0BFF9274800F0BCF9164C636E98B200F0D5F9224D281C00F0B3F9224800F0B0F9B1
:4007C000E36D98B200F0CAF9281C00F0A9F92368012B05D11C4800F0A3F900F0C9F904E01A4800F09DF900F0C3F90022014B1A70C4E6C046940100204422000054220000F6
:40080000C9010000140100206C22000098220000A822000061010000C0220000E0220000FC22000020230000402300005C230000702300007C23000084230000DC23000046
:4008400094230000AC230000C0230000D0230000FEE7C04670B50F4E0F4D13E029686B68AC68002202E001C901C30432A242FAD1E868002202E0002102C304328242FAD172
:400880001035013E002EE9D101F094FCFFF726FEFEE7C046010000001824000008B50F4A136801218B43136000230AE0032B03D89A000B49505800E00A4899000A4A885072
:4008C0000133182BF2D9FFF7CBFB0022074B1A60024A116801230B43136008BD0000104000000000510800000000002068000020024B18684007C00F7047C0460400044064
:40090000034A10680423184010608008C0B270471000044004490A68EF231A400001DF3B184010430860704700000440034A1168034B0B400003184310607047080004407A
:40094000FF8FFFFF0004000C014B18607047C046080105400004000C014B18607047C046140105400A4B1B689B039B0F012B04D1084A904201D0013004E0002B02D10028D0
:4009800000D001380004000C034B18607047C04600010540FFFF00000C01054038B5041C0D1C00F0CFF9AC40024B1C6000F0CEF938BDC0460800054008B500F0C3F9064AAA
:4009C000116801230B43136000F0C0F901201821FFF7E4FF08BDC04600000540014B18607047C0463801054010B50D4C8023DB042360236823600020FFF7A4FF23682360B6
:400A00000C22084B1A600120FFF7E8FF3122064B1A600648FFF79EFF0020FFF7A3FF10BD00010540240105402801054060EA000008B5064B1B78002B04D1FFF7D5FF012243
:400A4000024B1A70FFF7B8FF08BDC046AC000020014B18607047C04630010540034A136838218B43C00018431060704708010440044B1B68002BFBDB0002034B1843014B1C
:400A8000186070470000014040000080014B18667047C0460000002010B5041C00F052F9044A1368C0218B43A4011C43146000F04DF910BD08E400E080225200014B1A60C6
:400AC0007047C04600E100E0034B1B68DB0501D5012000E00020704700E100E080225200014B1A607047C04680E100E010B5041CFFF7F4FF201CFFF7C9FF0320FFF7CCFFF4
:400B0000FFF7DAFF10BDC04608B5FFF7E7FF0248FFF7BCFF08BDC046510800007047C04638B5051C0078012404E000F099F9285D0134E4B20028F8D138BDC04638B5041C44
:400B40000309054DE85C00F08BF90F231C40285D00F086F938BDC046E023000010B5041C000AFFF7EBFFE0B2FFF7E8FF10BDC04608B50D2000F074F90A2000F071F908BD3E
:400B8000014B18647047C0460000002010B5041C00F0D8F8044A1368C0218B43A4011C43146000F0D3F810BD00E400E00122014B1A60704700E100E00122014B1A607047AE
:400BC00080E100E010B5041CFFF7F6FF201CFFF7D7FF0320FFF7DAFFFFF7E8FF10BDC046034A136838218B43C00018431060704708000440024B18688007C00F7047C046DD
:400C00000400044004490A68F7231A40C000EF3B184010430860704700010440034A1168034B0B40400218431060704708010440FFF1FFFF04490A68FB231A408000F73BF9
:400C4000184010430860704700010440034A1168034B0B408001184310607047080104403FFEFFFF04490A68BF231A4080017F3B184010430860704700000440034A116871
:400C8000034B0B40800418431060704708000440FFFFE3FF034A1168034B0B40C00318431060704708000440FF7FFCFF024B18688006C00F7047C04604000440034A116813
:400CC000034B0B40800418431060704708010440FFFFE3FF024B18684006C00F7047C04604010440034A1168034B0B40400518431060704708010440FFFF1FFF024B1868E4
:400D00000006C00F7047C04604010440034A136807218B43184310607047C04608020440024B1868012318407047C046040204400230800804D0C0460138FDD1C046C0464D
:400D4000C0467047EFF3108072B6704780F310887047C046C046C04601BE7047F8B5041E182C03D0202801D030283CD1FFF7EAFF051C1F4A136807218B4313601D4BE31807
:400D80001B78DBB21C4A13601C4A13688B4313601B4803687F229343191C1A4BE3181B7813400B4303603220FFF7C2FF182C16D90F4E33680727BB431A1C231C1C3B9B08D8
:400DC0003B40134333603220FFF7B2FF3268BA43231C183B9B083C1C1C4014433460281CFFF7B4FF02E00020FFF7B6FFF8BDC046080F0340CDF1FF0F0C0F0340100F0340F0
:400E0000180F0340B4F1FF0F08B5034B1B7A5843FFF78EFF08BDC0467C00002008B5FFF791FF074B1B889BB2064A1360064A116804230B43136030BFFFF788FF08BDC04640
:400E400052F1FF0F0400034010ED00E0014A024B1A6070476588EDAC3800034000000000FEB5494652465B460EB407462E4909688A462E4A12682E48022100F061F803001A
:400E80002A480068C0182A4900F05AF806001F3EB346234A126801219140C9430C0001250026FFF74FFF814651460B6823400B6058460430FFF73CFF3800F04028409040AB
:400EC0000B68234003430B605846FFF731FF0136072EF1D900200130012090400B68234003430B6058460630FFF722FF4846FFF72DFFC046C046C0460EBC894692469B46A9
:400F0000FEBDC046C046C046C046C046C046C046C046C046C046C046C046C046C046C046B000002078000020740000208800002000C20100C046C046C046C046C046C04611
:400F4000002243088B4274D303098B425FD3030A8B4244D3030B8B4228D3030C8B420DD3FF22090212BA030C8B4202D31212090265D0030B8B4219D300E0090AC30B8B4200
:400F800001D3CB03C01A5241830B8B4201D38B03C01A5241430B8B4201D34B03C01A5241030B8B4201D30B03C01A5241C30A8B4201D3CB02C01A5241830A8B4201D38B02C1
:400FC000C01A5241430A8B4201D34B02C01A5241030A8B4201D30B02C01A5241CDD2C3098B4201D3CB01C01A524183098B4201D38B01C01A524143098B4201D34B01C01A36
:40100000524103098B4201D30B01C01A5241C3088B4201D3CB00C01A524183088B4201D38B00C01A524143088B4201D34B00C01A5241411A00D20146524110467047FFE791
:4010400001B5002000F00CF802BDC0460029F7D003B5FFF775FF0EBC4243891A1847C0467047C04638B500220C4B041C0D1C00F05FFF002804D1201C291C00F0B3FE38BDAA
:40108000064B0022201C291C00F032FB00F0AAFE80231B069C466044F1E7C0460000E041F0B5454657464E4694464C000A03C90FE0B488460E1C1903470FC500480A614616
:4010C000490F01436046520A1743C0005A00640D520DDB0F8446984500D1A7E0A01A002800DC01E1002A3DD163460B4300D0D4E06B0700D188E00F232B40042B00D183E027
:401100002A1DAA42AD4180236D427F191B043B404646151C002B00D17CE0CC4B01349C4200D1FDE03A1CCA4BED081A405007640552020543120B640D002112030B0D1B050B
:401140006405120B1A436308C24CF60714401C43640064083443281C211C1CBC90469946A246F0BDB94B9C42C2D080231B041943382800DDECE01F2800DD21E120220E1C4C
:401180006346121A9640C340334366469640321C561EB24113430A1CC240EB1A9D42B6411D1CBA1A7642971B3B0200D497E07A02560A002E00D1B6E0301C00F0C3FE031CEF
:4011C000083B1F2B00DDB7E09E40371C28262A1C361AF240161C9D403E439C4200DDB2E01C1B621C1F2A00DDD8E01F23291C1C1B331CA540A340D1406C1EA541D64019436F
:401200000D43371C002473E780231B043B40464600D082E78D4BED0878070543FA089C4232D012036405120B640D85E7A31A002B00DC94E0002A3CD0844A944200D157E77C
:40124000802212041143382B00DC05E163461943481E81410022C8B24019A8429B41051CD2195B42D7183B0239D5784B01349C4200D14CE10120764A6B083A40284018430D
:40128000D5070543570833E72B1C134348D080231B031A431203120B4EE70138002878D16346EE1AB5429B417A1A5B42D71A351C7AE7021C0A4300D11AE7013B002B00D0E1
:4012C000F2E04019A8429B41CA195B42D718051CC9E7131C334300D118E1171C351C46466B0700D007E795E700287AD1621C5205520D012A00DCFBE06246AA1A9542B641CF
:401300009146781A7242861A320200D493E06246551BAC458041CF1B40423E1A984648E70022002508E7281C00F00CFE2030031C083B1F2B00DC47E7283885402E1C0025CC
:401340009C4200DC4CE7424AE41A1640371CCFE6634619434B1E99410022CBB21DE7002B00D0F2E0601C43055B0D012B00DCA4E0364B984200D121E163465C19AC429B4112
:40138000CF195B42FA186408D50725435708041CAEE62E4B9C4200D0EAE6A9E6211C331C1F39CB40191C202A00D182E03F231C1BA64035436E1EB54100270D4300248EE723
:4013C000031C0E1C203BDE40202874D040231B1A99400B1C62461343591E8B4100223343DBE6002C50D0194CA24200D1A8E08024240440422743382800DDD9E01F2800DDAD
:4014000039E120243E1C241AA640B0462E1CA146C640444626434C46A5406C1EA541C74035436046451BCF1BAC45894149427F1A141C9846B8E64B464D46334300D0B8E6C7
:401440000026002700240025E4E6C046FF070000FFFF7FFFFFFF0F801F2B5BDC2022081CD21A9040814660469246D8404A4610438146524660469040021C501E8241484662
:4014800010430A1CDA40E7E63C1C2C4358D0C043002851D16046451BAC458041CF1B40423F1A141C98467FE68F4A944200D0CAE61EE600267DE700238CE73B1C2B43002C5C
:4014C00000D0BDE0002B00D1F5E063460B4300D10EE663465B19AB428041CA19404217183A0200D4FCE0814A1D1C17400134FFE53A1C2A43002C51D1002A00D085E062461B
:401500000A4303D00F1C65469846F1E50026002700257FE6181C0A1C2038C240202B00D1A7E04020C01A8140081C63461843411E8841104300228FE66B4CA24200D05AE7F2
:401540000F1C6546141C9846D2E5002C3AD1381C284371D0DB43002B18D0634882426BD0382B00DD9DE01F2B00DDA7E020203C1CC01A8440A1462C1C8246DC404846044335
:4015800050468540681E8541DF402543654465459B417F185B42FF18141C64E6002A19D162460A4377D00F1C654698464E4C9FE53D436F1EBD410027EDB232E7041C0027B6
:4015C000002527E64848824236D0802000045B420743C5E762460A4349D08024ED087807FA0824032843224209D0CE08264206D162464F07381CD20810439846321CD2009F
:40160000470F1743C500384C72E562460A4300D16EE56246AE1AB5429241781A5242821A100200D455E66246551BAC458041CA1B4042171A98465BE50F1C6546141C57E562
:40164000002B34D063460B4311D08024ED087807FA08240328432242D1D0CB082342CED162464F07381CD20810431A1CC7E71E4C3EE5002059E7041C3E1C203CE640341C3F
:4016800020282BD04026301A87403D436F1EBD4100272543C5E680270026FF03124C0025B8E53D436F1EBD410027EDB26EE70F1C65460D4C1CE50F1C654619E51C1C381C86
:4016C000203CE040041C202B0CD04020C31A9F403D436F1EBD410027254357E70027D4E71D1CFCE50027F3E7FF070000FFFF7FFFF0B54D4644465F465646F0B40E1C111CB6
:401700003203520A470F1743C5001A035800DB0F9946520A4B0F83B01A43CB000193CF4B7400F60F640DB046400D984200D1E8E00123494659400B1C9E4200D1B1E0261A11
:40174000002E00DC1CE1002842D1131C01990B4300D0E6E06B0700D18EE00F232B40042B00D189E02A1DAA42AD418023012641466D427F191B043B400E40151C002B00D1F5
:4017800083E0B64B01349C4200D116E13A1CB44BED081A405007640552020543120B640D002112030B0D1B056405120B1A436308AC4CF60714401C43640064083443281C6D
:4017C000211C03B03CBC90469946A246AB46F0BDA24B9C42BED080231B041A43382E00DD03E11F2E00DD3FE12020831B9946131C49468B409C46019B6046F3400343019861
:40180000F2408840011C481E81410B43EB1A9D4280411D1CBA1A4042171A3B0200D4A8E07A02560A002E00D1CAE0301C00F08AFB031C083B1F2B00DDCBE02822291C121AE8
:40184000D1409E400A1C9D4032439C4200DDC8E01C1B671C1F2F00DDEDE01F23291C1C1B131CA540A340F9406C1EA541FA4019430D43171C00246DE78023012642461B048C
:401880003B401640002B00D07BE7744BED0878070543FA089C423BD012036405120B640D7EE7231A9A46002B00DCA5E0002844D06A48844200D14DE780200004024353463F
:4018C000382B00DC1CE1019B1A43511E8A41D1B200224919A94280410D1CD219404217183B0246D55D4B01349C4200D169E101205B4A6B083A4028401843D50705435708DA
:4019000028E7131C01990B4300D111E74B4613E72B1C134351D080231B031A431203120B3EE7013E002E00D080E0691A8D429B41BA1A5B42D71A0D1C6FE7101C019B18432B
:4019400000D107E701235B429C46E2445346002B00D002E1019BD2195919A9429B415B42D7180D1CBCE76346034300D128E1071C65466B0700D0F0E6012643461E4084E728
:40198000002E00D081E0601C4005400D012800DC07E10199681A84466545B641B81A7642861B300200D4A1E08C464D1BAC458941D21B4942561A984634E700220025EFE6A2
:4019C000281C00F0BFFA2030031C083B1F2B00DC33E7021C283A95402A1C00259C4200DC36E71F4FE41A1740B4E6019B1A43511E8A41D3B2002209E7002B00D001E1601CF1
:401A000043055B0D012B00DCB0E0144B984200D11EE1019BD2195919A9429B415B42D2184908D5070D435708041C93E60B4B9C4200D0D3E68EE6211C131C1F39CB40191C64
:401A4000202F00D18EE03F231C1BA24015436A1E954100270D4300248BE7C046FF070000FFFF7FFFFFFF0F80331C101C203BD840202E79D040239B1B9A40131C019A1343ED
:401A8000591E8B4100220343C0E6002C53D0C74CA04200D1B0E0802471428946240427434946382900DDCDE01F2900DD59E120243E1C611A8E408A46B04649462E1CCE400B
:401AC0005146B4468D4064464646494626436C1EA541CF4035430199D71B8C464D1BAC4592415242BF1A041C984696E663466546334300D096E60026002700240025C4E69C
:401B00001F2B61DC2020C31A9B46131C59468B4051469946019BCB409C464B46604603439C465B46019999406346481E814119435346DA40CDE63C1C2C435DD0F14389468B
:401B4000002955D10199D21B8C464D1BAC4589414942571A041C98465FE69448844200D0ADE6F7E5002271E7002387E73B1C2B43002C00D0DAE0002B00D113E1131C01993B
:401B80000B4300D1E6E54919A9429B41D2195B42D7183B0200D421E1854B0D1C1F40041CD8E5381C2843002C40D1002800D083E0101C0199084303D0171C0D1C9846C9E530
:401BC00000260027002560E65046131C2038C340181C5346202B00D1C1E0402351465B1A9A40019911434A1E91410022014370E66E4CA04200D053E7171C019D041C9846E1
:401C0000A8E5002C28D13C1C2C4300D18AE0DB439A46002B00D082E0019BD2199C4665449D42894149425718041C59E600285BD1101C0199084300D1A4E0171C0D1C98468D
:401C40005A4C87E53D436F1EBD410027EDB242E7041C0027002518E6544CA04262D0534680245B429A46240427435346382B00DD8EE01F2B00DD9DE02024E31A9B463B1C8A
:401C800059468B40514699462B1CCB409C464B46644623439C465B469D4063466C1EA541CF401D43019BBF189C4665449D4292415242BF18041C13E6101C0199084300D171
:401CC00048E5681A844685428041BE1A4042301A060200D447E68C464D1BAC458941D21B4942571A984635E5101C0199084334D080247807ED08FF0824032843274208D059
:401D0000D608264205D1C90852070A43101C371C9846FF00420F1743C500244C1AE5234CA042A2D1171C019D041C13E5002B35D0131C01990B4310D080247807ED08FF08E2
:401D4000240328432742E4D0D3082342E1D1C90852070A43101C1F1CDBE7144CFAE400223FE74C463E1C203CE6404946341C202932D04026761AB7403D436F1EBD410027E5
:401D80002543A8E680270026FF03084C00257CE53D436F1EBD410027EDB283E7171C019D024CD7E4171C019DD4E4C046FF070000FFFF7FFF54463B1C203CE3401C1C53461D
:401DC000202B0DD0402351465B1A9F403D436F1EBD410027254365E70027CDE70D1CC8E50027F3E70B0330B5134C1A0B4B00051C5B0DC90F0020A34210DD104883420EDCB9
:401E000080200F4C40030243E41A1F2C0ADD0D48C31ADA40131C48424340581830BD0A4BC818FBE7281CE040084CA44663449A40131C0343EFE7C046FE0300001D0400005D
:401E40003304000013040000FFFFFF7FEDFBFFFF38B5041E16D0C50F00D04442201C00F071F8174B1B1A0A2821DC021C211C153291400A1C0B21081AC4405B052403240B97
:401E80005B0D03E000250023002400220021101C24030A0D1205240B14430A4A1B0514401C436400ED0764082C43211C38BD0B3884405B052403240B5B0D0022E6E7C0467B
:401EC0001E040000FFFF0F808446101C62468C46191C634600E0C0461FB500F005F9002801D40021C8421FBD10B500F049F84042013010BD10B500F0F7F8002801DB0020FB
:401F000010BD012010BDC04610B500F0EDF8002801DD002010BD012010BDC04610B500F073F8002801DC002010BD012010BDC04610B500F069F8002801DA002010BD012032
:401F400010BDC0461C2101231B04984201D3000C10391B0A984201D3000A08391B09984201D30009043902A2105C40187047C04604030202010101010000000000000000A1
:401F8000F0B55F464D4644465646F0B41F035C00DB0F99461B4B0E034D00C90F8446360B6D0D8B4690463F0B640D9D420CD0154B9C4210D00123A54214D0181C3CBC9046E6
:401FC0009946A246AB46F0BD311C01230143F4D10C4B9C42EED13A430123002AEDD10123A542EAD1BE42E8D1C445E6D1CB4506D0002DE2D13043031C581E8341DDE70023CD
:40200000DBE7C046FF070000F0B5574645464E46E0B40F034E00C90F8A4632491D035C0084463F0B760D90462D0B640DDB0F8E420FD08C4239D0002E10D1384341424141C9
:402040008946002C27D12A4325D1002000290ED108E0391C01432ED1B44226D0002C0BD09A450DD05346594201231943081C1CBC90469946A246F0BD2A43F3D09A45F1D1E8
:40208000A642EFDC1ADA504641424841012341421943081CEBE74A46002AE1D058425841012241421143081CE1E7291C114302D1002EC2D0D4E702204042D8E7AF42D1D876
:4020C00009D00020AF42D2D2504641424841012340421843CBE7C445C4D80020C445F3D3C5E7C046FF070000F0B55F464D46444656468046F0B4061C0803000B84462C48CE
:402100004C001F035D00C90F640D8B4691463F0B6D0DDB0F844212D0854225D0002C14D161460E4370424641002D35D0002E21D058425841012143420B43181C0EE061464D
:40214000022031430AD1A5420ED0002D12D13A4310D15B46594201231943081C3CBC90469946A246AB46F0BD391C02201143F5D1002CD5D09B45ECD1AC42EADC05DBBC4514
:40218000E7D80FD00020BC45E8D2584641424841414201200843E1E73A43C7D10020002EDCD1D6E7C845D4D80020C845EDD3D5E7FF0700000E4B70B500251E1C0D4CE41ADC
:4021C000A410A54204D0AB00F35898470135F8E700F010F9084B00251E1C084CE41AA410A54204D0AB00F35898470135F8E770BD002400000024000000240000082400006B
:40220000000000002D2D2D54696D6520746F20736875742D4F46463A200000002D2D2D546F67676C65204F6E2074696D653A2000546F67676C65204F46462074696D653AEA
:40224000200000002F2F2F20506F7765722D7570000000002F2F2F4669726D776172652076657273696F6E3A200000002F2F2F2057616974696E6720666F72207075736861
:4022800020627574746F6E20746F20626520707265737365640000002D2D2D4465657020536C6565700000002D2D2D436F756E74646F776E207465726D696E6174656400AF
:4022C0002B2B2B5075736820427574746F6E204576656E743A2052656C656173656400002B2B2B5075736820427574746F6E204576656E743A20436C69636B002B2B2B5090
:4023000075736820427574746F6E204576656E743A20446F75626C6520436C69636B00002B2B2B5075736820427574746F6E204576656E743A20486F6C6420446F776E005C
:402340002F2F2F20436F756E74646F776E20746F20657874696E6374696F6E002D2D2D4F7065726174696E67204D6F64653A200053687574742D6F66663B0000546F67670C
:402380006C653B00546F67676C6520436F756E743A2000004C6F6F6B2D5570205461626C6520416464726573733A20005365636F6E64732072656D616E696E673A200000C3
:4023C0004F7574707574203D20486967683B00004F7574707574203D204C6F773B0000003031323334353637383941424344454600000000F8B5C046F8BC08BC9E46704731
:40240000290100009D080000F8B5C046F8BC08BC9E467047010100002824000070000020200000005001000000000000000304400300000000007017E02E00000C000000CD
:40244000001BB7000000000000000000000000000000000000000000000000000000000000000000000000000000000000000000000000000000000000000000000000008A
:40248000000000000000000000000000000000000000000000000000000000000000000000000000000000000000000000000000000000000000000000000000000000001C
:4024C00000000000000000000000000000000000000000000000000000000000000000000000000000000000000000000000000000000000000000000000000000000000DC
:40250000000000000000000000000000000000000000000000000000000000000000000000000000000000000000000000000000000000000000000000000000000000009B
:40254000000000000000000000000000000000000000000000000000000000000000000000000000000000000000000000000000000000000000000000000000000000005B
:0200000490303A
:020000005B7A29
:0200000490402A
:200000000000000000000000000000000000000000000000000000000000000000000000E0
:0200000490501A
:0C00000000020A43119A00000A4F6D1420
:0200000490600A
:0100000001FE
:00000001FF