:400000000008002011000000F9020000F902000008B500F04DFB00F071F9C04610B50A4C11232360182000F0EDFA0023074A13600749084A11600421074A11603C31074ABC
:400040001160236010BDC046300010400003014040FF008000000140280003400C01014008B572B690220E4B1A6000220D4B1A60C02292010C4B1A60802252000B4B1A60D4
:40008000FE3A0B4B1A600B4A0B4B1A6001220B4B1A6005320A4B1A60FFF7C0FF08BDC0460001024000030240080004400C0004400001044030001800080104400003044055
:4000C00008030440000000000000000000000000000000000000000000000000000000000000000000000000000000000000000000000000000000000000000000000000B1
:4001000010B5064C2378002B07D1054B002B02D0044800E000BF0123237010BD90000020000000009009000008B5084B002B03D00748084900E000BF07480368002B00D102
:4001400008BD064B002BFBD09847F9E7000000009009000094000020700000200000000008B5124B1B68012B07D800230F4A13600F4A137000F0F4F902E0013B0B4A1360A1
:400180000C4B1B78C82B0AD100220A4B1A70084A1378013B13700122074B1A7002E00133044A1370012000F093F908BDB4000020E7000020E6000020E400002008B50122DD
:4001C000024B1A7000F0E8F808BDC046E500002010B562B6FF2000F081F900F071FA0024344B1C7000F064F9334800F0ABF9334800F0E2F9324A334B1A603C22324B1A701D
:40020000324B1C70324B1C702E4B1B68002B05D1002000F0CBF82F4800F0E4F82B4B1B78012B12D1012000F0C1F80022274B1A70234A244B1A603C22234B1A701E4800F097
:4002400081F9012000F044F90EE01E4B1B68002B0AD01F4B1B78632B03D81F4800F0C2F802E01E4800F0BEF8124B1B78012BCBD11B4800F027FA00F04DFA1A4800F022FAA1
:40028000194B1B78002B03D1184800F01BFA02E0174800F017FA00F03DFA164800F012FA094B187800F02CFA00F034FA0022014B1A70A9E7E400002061010000BD0100005C
:4002C000E02E0000B4000020E7000020E5000020E6000020983A00003075000060EA000094090000B0090000C0000020C4090000D0090000D8090000FEE7C04670B50F4E1F
:400300000F4D13E029686B68AC68002202E001C901C30432A242FAD1E868002202E0002102C304328242FAD11035013E002EE9D100F008FBFFF74CFFFEE7C04601000000F4
:40034000240A000008B50F4A136801218B43136000230AE0032B03D89A000B49505800E00A4899000A4A88500133182BF2D9FFF777FE0022074B1A60024A116801230B43E6
:40038000136008BD0000104000000000F90200000000002068000020034A10681023184010600009C0B270471000044004490A68BF231A4080017F3B1840104308607047CC
:4003C000000104400004000C014B18607047C046080105400004000C014B18607047C046140105400A4B1B689B039B0F012B04D1084A904201D0013004E0002B02D100289D
:4004000000D001380004000C034B18607047C04600010540FFFF00000C01054038B5041C0D1C00F0E3F8AC40024B1C6000F0E2F838BDC0460800054008B500F0D7F8064AF6
:40044000116801230B43136000F0D4F801201821FFF7E4FF08BDC04600000540014B18607047C0463801054010B50D4C8023DB042360236823600020FFF7A4FF2368236028
:400480000C22084B1A600120FFF7E8FF3122064B1A600648FFF79EFF0020FFF7A3FF10BD00010540240105402801054060EA000008B5064B1B78002B04D1FFF7D5FF0122C9
:4004C000024B1A70FFF7B8FF08BDC046AC000020014B18607047C04630010540044B1B68002BFBDB0002034B1843014B186070470000014040000080014B18667047C04669
:400500000000002010B5041C00F070F8044A1368C0218B43A4011C43146000F06BF810BD08E400E080225200014B1A607047C04600E100E080225200014B1A607047C046D3
:4005400080E100E010B5041CFFF7F4FF201CFFF7D3FF0320FFF7D6FFFFF7E4FF10BDC04608B5FFF7E7FF0248FFF7C6FF08BDC046F9020000014B18647047C04600000020C5
:4005800010B5041C00F032F8044A1368C0218B43A4011C43146000F02DF810BD00E400E00122014B1A60704700E100E00122014B1A60704780E100E010B5041CFFF7F6FF94
:4005C000201CFFF7D7FF0320FFF7DAFFFFF7E8FF10BDC046000000000230800804D0C0460138FDD1C046C046C0467047EFF3108072B6704780F310887047C046C046C046C8
:4006000001BE7047F8B5041E182C03D0202801D030283CD1FFF7EAFF051C1F4A136807218B4313601D4BE3181B78DBB21C4A13601C4A13688B4313601B4803687F229343D0
:40064000191C1A4BE3181B7813400B4303603220FFF7C2FF182C16D90F4E33680727BB431A1C231C1C3B9B083B40134333603220FFF7B2FF3268BA43231C183B9B083C1CFE
:400680001C4014433460281CFFF7B4FF02E00020FFF7B6FFF8BDC046080F0340CDF1FF0F0C0F0340100F0340180F0340B4F1FF0F014A024B1A6070476588EDAC38000340D1
:4006C0007047C04638B5051C0078012404E000F037F8285D0134E4B20028F8D138BDC04638B5041C0309054DE85C00F029F80F231C40285D00F024F838BDC046EC09000084
:4007000010B5041C000AFFF7EBFFE0B2FFF7E8FF10BDC04608B50D2000F012F80A2000F00FF808BD00000000000000000000000000000000000000000000000000000000DE
:40074000FEB5494652465B460EB407462E4909688A462E4A12682E48022100F061F803002A480068C0182A4900F05AF806001F3EB346234A126801219140C9430C00012585
:400780000026FFF733FF814651460B6823400B6058460430FFF720FF3800F040284090400B68234003430B605846FFF715FF0136072EF1D900200130012090400B68234048
:4007C00003430B6058460630FFF706FF4846FFF711FFC046C046C0460EBC894692469B46FEBDC046C046C046C046C046C046C046C046C046C046C046C046C046C046C0466C
:40080000B000002088000020840000208000002000C20100C046C046C046C046C046C046002243088B4274D303098B425FD3030A8B4244D3030B8B4228D3030C8B420DD306
:40084000FF22090212BA030C8B4202D31212090265D0030B8B4219D300E0090AC30B8B4201D3CB03C01A5241830B8B4201D38B03C01A5241430B8B4201D34B03C01A524133
:40088000030B8B4201D30B03C01A5241C30A8B4201D3CB02C01A5241830A8B4201D38B02C01A5241430A8B4201D34B02C01A5241030A8B4201D30B02C01A5241CDD2C30903
:4008C0008B4201D3CB01C01A524183098B4201D38B01C01A524143098B4201D34B01C01A524103098B4201D30B01C01A5241C3088B4201D3CB00C01A524183088B4201D35C
:400900008B00C01A524143088B4201D34B00C01A5241411A00D20146524110467047FFE701B5002000F00CF802BDC0460029F7D003B5FFF775FF0EBC4243891A1847C04629
:400940007047C0460E4B70B500251E1C0D4CE41AA410A54204D0AB00F35898470135F8E700F04EF8084B00251E1C084CE41AA410A54204D0AB00F35898470135F8E770BD6D
:400980000C0A00000C0A00000C0A0000140A0000000000002D2D2D2D2D2D2D2D2D2D2D2D2D2D2D2D2D2D2D2D2D2D2D2D2D2D00004F7065726174696E67204D6F64653A209D
:4009C0000000000053687574746F666600000000546F67676C6500005365636F6E64732072656D616E696E673A200000303132333435363738394142434445460000000006
:400A0000F8B5C046F8BC08BC9E4670472901000045030000F8B5C046F8BC08BC9E46704701010000380A0000700000202000000060000000000000000000000000007017DD
:400A4000E02E00000C000000001BB7000003044003000000000000000000000000000000000000000000000000000000000000000000000000000000000000000000000040
:400A80000000000000000000000000000000000000000000000000000000000000000000000000000000000000000000000000000000000000000000000000000000000036
:400AC00000000000000000000000000000000000000000000000000000000000000000000000000000000000000000000000000000000000000000000000000000000000F6
:400B000000000000000000000000000000000000000000000000000000000000000000000000000000000000000000000000000000000000000000000000000000000000B5
:400B40000000000000000000000000000000000000000000000000000000000000000000000000000000000000000000000000000000000000000000000000000000000075
:0200000490303A
:020000003BE3E0
:0200000490402A
:1000000000000000000000000000000000000000F0
:0200000490501A
:0C00000000020A40119A00000A434D7DE6
:0200000490600A
:0100000001FE
:00000001FF