:400000000008002011000000E5030000E503000008B500F02DFD00F0E7F9C04610B50E4C11232360182000F095FC00230B4A13600B4A0C491160C020C0000B4908600B49C5
:40004000116004210A4A11603C310A4A11600131094A1160236010BD30001040000301400000014040FF00800403014041FF0080280003400C0101400001014008B572B601
:4000800090220E4B1A605E320D4B1A60C02292010C4B1A60802252000B4B1A60FE3A0B4B1A600B4A0B4B1A6003220B4B1A6021320A4B1A60FFF7B2FF08BDC0460001024056
:4000C00000030240080004400C00044000010440300018000801044000030440080304400000000000000000000000000000000000000000000000000000000000000000AF
:4001000010B5064C2378002B07D1054B002B02D0044800E000BF0123237010BD78000020000000009C0E000008B5084B002B03D00748084900E000BF07480368002B00D109
:4001400008BD064B002BFBD09847F9E7000000009C0E00007C000020700000200000000008B5124B1B68012B07D800230F4A13600F4A137000F088FB02E0013B0B4A136012
:400180000C4B1B78C82B0AD100220A4B1A70084A1378013B13700122074B1A7002E00133044A1370012000F027FB08BDA0000020DB000020DA000020D800002008B501227F
:4001C000024B1A7000F07CFA08BDC046D900002008B5102857D880002C4B1B589F46002052E0012000F076FA00204DE0002000F071FA002048E0264B5A78264B1A7000204A
:4002000042E00906244B196000203DE00904224B1960002038E009021F4B1960002033E01D4B1A6894466144196000202CE009061A4B1960002027E00904184B19600020F1
:4002400022E00902154B196000201DE0134B1A68944661441960002016E00906104B1960002011E009040E4B196000200CE009020B4B1960002007E0094B1A689446614478
:400280001960002000E0FF2008BDC046A00E000074000020B4000020A0000020B0000020E000002008B562B6FF2000F0ABFA3F48042100F0BBF93E48042100F0D5F900F003
:4002C000F7F800F089FA3B4800F0D0FA3A4800F007FB3A4A3A4B1A603C223A4B1A700023394A1370394A1370394A1370FE22394B1A70334B1B68002B05D1002000F0EAF9A3
:40030000354800F003FA304B1B78012B12D1012000F0E0F900222C4B1A70284A284B1A603C22284B1A70234800F0A0FA012000F063FA0EE0224B1B68002B0AD0234B1B7828
:40034000632B03D8254800F0E1F902E0244800F0DDF900F03DF9C3061FD500F09FF904280ED1134B1B78012B0AD1114BDB78172B06D10F4B58789978FFF72AFF154B187051
:4003800000F098F900F03EF9084A124B19785170074989789170FF221A7000F019F9C307A7D500F081F900F019F9A2E774000020A800002061010000BD010000E02E0000D0
:4003C000A0000020DB000020D9000020DA000020D8000020AC000020983A00003075000060EA0000FEE7C04670B50F4E0F4D13E029686B68AC68002202E001C901C30432CE
:40040000A242FAD1E868002202E0002102C304328242FAD11035013E002EE9D100F018FDFFF740FFFEE7C04601000000080F000008B50F4A136801218B43136000230AE064
:40044000032B03D89A000B49505800E00A4899000A4A88500133182BF2D9FFF70FFE0022074B1A60024A116801230B43136008BD0000104000000000E503000000000020EC
:400480006800002008B5052000F04EFA08BDC04608B500F03BF808BD08B5044A1368802109060B431360FFF7EDFF08BD0000064008B5064B1B78002B04D1FFF7E9FF0122A4
:4004C000024B1A70FFF7E8FF08BDC046940000200A4B1B68DB050DD5094B1B685B0409D4064B1968074A0A401A601A68802149000A431A600222044B1A6070470000064018
:4005000060000640FFFEFFFF6C00064010B500241A4B1C601A4A1B4B1A601B4B1B4A13601B4A14601B491C4A11601C4A13601C4B1C60052000F002FA0520032100F072FA96
:400540000520184900F05CFA174B1C604C22FF32164B1A60164B1C60164B1C60164B1C603C3AFF3A154B1A70154B1C70154B1C60154B1C60154B1C7010BDC046000006407E
:4005800077080040600006400701008000030640040306401000FE00100306400002064004020640810A0000880E0640480F0640080F0640C80F0640880F0640E40000205E
:4005C000F0000020E8000020F400002008010020014B1878C0B27047F000002010B5052000F0ACF9064A14780F231C4013780D218B431370052000F097F9201C10BDC046EA
:40060000F000002010B5052000F098F9064B1C780F229443197820320A401A70052000F083F9201C10BDC046F000002038B5002810D00D1C041C052000F080F9064B1C6052
:40064000064B1D600023064A1360064A1360052000F06AF938BDC04604010020F8000020E8000020EC00002038B500280ED00D1C041C052000F062F9054B1C60054B1D60FA
:400680000022054B1A60052000F04EF938BDC04600010020FC000020F4000020014B18687047C046F40000200022014B1A607047E80000200022014B1A607047F4000020AF
:4006C000034A10681023184010600009C0B270471000044004490A68BF231A4080017F3B1840104308607047000104400004000C014B18607047C046080105400004000C80
:40070000014B18607047C046140105400A4B1B689B039B0F012B04D1084A904201D0013004E0002B02D1002800D001380004000C034B18607047C04600010540FFFF0000AD
:400740000C01054038B5041C0D1C00F0E3F8AC40024B1C6000F0E2F838BDC0460800054008B500F0D7F8064A116801230B43136000F0D4F801201821FFF7E4FF08BDC0467B
:4007800000000540014B18607047C0463801054010B50D4C8023DB042360236823600020FFF7A4FF236823600C22084B1A600120FFF7E8FF3122064B1A600648FFF79EFF05
:4007C0000020FFF7A3FF10BD00010540240105402801054060EA000008B5064B1B78002B04D1FFF7D5FF0122024B1A70FFF7B8FF08BDC0469C000020014B18607047C046F2
:4008000030010540044B1B68002BFBDB0002034B1843014B186070470000014040000080014B18667047C0460000002010B5041C00F070F8044A1368C0218B43A4011C43E8
:40084000146000F06BF810BD08E400E080225200014B1A607047C04600E100E080225200014B1A607047C04680E100E010B5041CFFF7F4FF201CFFF7D3FF0320FFF7D6FF68
:40088000FFF7E4FF10BDC04608B5FFF7E7FF0248FFF7C6FF08BDC046E5030000014B18647047C0460000002010B5041C00F032F8044A1368C0218B43A4011C43146000F0B7
:4008C0002DF810BD00E400E00122014B1A60704700E100E00122014B1A60704780E100E010B5041CFFF7F6FF201CFFF7D7FF0320FFF7DAFFFFF7E8FF10BDC0460000000086
:400900000230800804D0C0460138FDD1C046C046C0467047EFF3108072B6704780F310887047C046C046C0461F2318401E3B8340181C014B1860704700E100E01F2318406E
:400940001E3B8340181C014B1860704780E100E001BE7047F8B5041E182C03D0202801D030283CD1FFF7D6FF051C1F4A136807218B4313601D4BE3181B78DBB21C4A1360FC
:400980001C4A13688B4313601B4803687F229343191C1A4BE3181B7813400B4303603220FFF7AEFF182C16D90F4E33680727BB431A1C231C1C3B9B083B4013433360322033
:4009C000FFF79EFF3268BA43231C183B9B083C1C1C4014433460281CFFF7A0FF02E00020FFF7B6FFF8BDC046080F0340CDF1FF0F0C0F0340100F0340180F0340B4F1FF0FB5
:400A000038B5041C0D1C082802D90020FFF7A0FFA400034B9C4664442068256038BDC0464000002070B5041C0E1E032E02D90020FFF78EFF082C02D90020FFF789FF0325E7
:400A40002540ED000635FFF765FFA408A400074B9C46644423680322AA409343AE40351C1D432560FFF75AFF70BDC04600E400E0014A024B1A6070476588EDAC38000340BF
:400A800010B5CE4B1B68002B00D09847CC4B1B68DB0702D50022CB4B1A60CB4B1B789B061FD4CA4B1A680223FF331A4219D0C64B1B78DB0709D5C64B1A7802218A431A7005
:400AC000197809220A431A7008E0C14B1A7820218A431A70197890220A431A700022BA4B1A70B94B1B789B0600D565E1B64B1B78DB0600D44AE1B54B1B689B073ED5022257
:400B0000B44B1A60B44A13680F211940136880221202134000D00123CB18B04A1278D2B29A4205D9AA4A117804230B43137006E0AA4A12789B1AAA490A68D31A0B60A84BDF
:400B40001A68A84B1A600023A74A1360A34A1370A64B1A68802149020A431A601968A44A0A401A609A4B1A7802218A431A70197801220A431A701022934B1A70934B1B68BF
:400B80001B0737D50822934B1A609A4B1B689B040CD414E0984B1A68984909688A1898490968C9B211701A6801321A60954B1B681B07EFD18F4A1168934B0B401360934BC3
:400BC0001B689B0604D5824A117840230B43137000228F4B1A608F4A8C4B1A607C4B1A7820218A431A70197810220A431A70764B10221A70754B1B685B0646D50122864B14
:400C00001A60864B1B68DB060FD50F32764B1A60744B1A68724B1A606D4A117802230B4313701222684B1A7024E07D4B1B68724A12689B1A072B03D80422754B1A6011E0EE
:400C4000082B06D16B4A1368A02109020B43136008E0684A1368802189010B43136008226B4B1A605A4A117820230B4313701122554B1A706B4A574B1A606B4A116808238A
:400C80000B4313600122694B1A60694B1B681B072AD5634B1B68584A1068181A0838082802D9002408200EE001240CE0524B1A68524909688A1852490968C9B211701A6860
:400CC00001321A6001380028F0D1002C08D0494A1368802109020B43136000224C4B1A6008224A4B1A6023E0514B1B685B071FD5434B1B68404A1168494A126891420DD2EF
:400D000001214A4A11603C4A11683C4800684118DBB20B7013680133136006E0FFF7D8FB2B4A117840230B4313700422374B1A60404B1B68DB061FD43EE0294B1A683E4B9C
:400D40001B689A420CD2264B1A683C4909688A181278D2B23A490A601A6801321A600BE0FF22374B1A601D4B1B789B0604D41B4A13780133DBB21370174B1B680F22134068
:400D8000082BDAD101322F4B1A6015E02E4A13685B005B08136010210B4B1970154B186819490140196018682849014019601368802109060B43136010BDC04698000020E7
:400DC0008C0E0640880E0640E40000204C0F0640F0000020400F06400802064008010020EC000020E8000020880F064004020640FFFFFEFF60000640F40000200001002061
:400E00004003064008030640FF5FFFFFC00F0640C80F0640ED0F0000800E064064000640FC000020FF0F0000480F06406C000640CC0F06408C0F0640F80000200401002018
:400E400040020640800F064000000640FFFCFFFF0E4B70B500251E1C0D4CE41AA410A54204D0AB00F35898470135F8E700F03AF8084B00251E1C084CE41AA410A54204D0B4
:400E8000AB00F35898470135F8E770BDF00E0000F00E0000F00E0000F80E000000000000E2010000EC010000F6010000020200000C02000016020000200200002E020000D8
:400EC00038020000420200004C0200005A020000640200006E02000078020000DE010000DE010000F8B5C046F8BC08BC9E4670472901000031040000F8B5C046F8BC08BC6C
:400F00009E46704701010000180F00007000002008000000980000000000000001FFFF170000000000000000000000000000000000000000000000000000000000000000A7
:400F40000000000000000000000000000000000000000000000000000000000000000000000000000000000000000000000000000000000000000000000000000000000071
:400F80000000000000000000000000000000000000000000000000000000000000000000000000000000000000000000000000000000000000000000000000000000000031
:400FC00000000000000000000000000000000000000000000000000000000000000000000000000000000000000000000000000000000000000000000000000000000000F1
:4010000000000000000000000000000000000000000000000000000000000000000000000000000000000000000000000000000000000000000000000000000000000000B0
:0200000490303A
:020000008396E5
:0200000490402A
:1000000000000000000000000000000000000000F0
:0200000490501A
:0C00000000020A40119A00000A449530EA
:0200000490600A
:0100000001FE
:00000001FF